:10000000003000205D470000FD590000FD59000050
:10001000FD590000FD590000FD590000FD59000088
:10002000FD590000FD590000FD590000FD59000078
:10003000FD590000FD590000FD590000FD59000068
:10004000FD590000FD590000FD590000FD59000058
:10005000FD590000FD590000FD590000FD59000048
:10006000FD590000FD590000FD590000FD59000038
:10007000FD590000FD590000FD590000FD59000028
:10008000FD590000E1320000FD5900000D3500006F
:10009000FD590000FD590000FD590000FD59000008
:1000A000FD590000FD590000FD590000FD590000F8
:1000B000FD590000FD590000CD3E0000093E000042
:10040000FFFFFFFFFFFFFFFFFFFFFFFFFFE4FEFF18
:10041000002934D00123002210B488422CD30124B7
:100420002407A14204D2814202D209011B01F8E74C
:10043000E400A14204D2814202D249005B00F8E705
:10044000884201D3401A1A434C08A04202D3001B31
:100450005C0822438C08A04202D3001B9C08224364
:10046000CC08A04202D3001BDC082243002803D0A2
:100470001B0901D00909E3E7101C10BC70470028D4
:1004800001D00020C04307B4024802A140180290E6
:1004900003BDC046D90000000029F0D003B5FFF726
:1004A000B9FF0EBC4243891A1847C046002941D003
:1004B00010B4041C4C40A44601230022002900D59E
:1004C0004942002800D5404288422CD30124240709
:1004D000A14204D2814202D209011B01F8E7E400E3
:1004E000A14204D2814202D249005B00F8E788426F
:1004F00001D3401A1A434C08A04202D3001B5C08E7
:1005000022438C08A04202D3001B9C082243CC0843
:10051000A04202D3001BDC082243002803D01B09A1
:1005200001D00909E3E7101C6446002C00D54042C5
:1005300010BC7047002806D003DB0020C0434008F1
:1005400001E08020000607B4024802A14018029092
:1005500003BDC046190000000029EBD003B5FFF72A
:10056000A7FF0EBC4243891A1847C0467047C046D1
:100570008446101C62468C46191C634600E0C04647
:100580001FB501F00FFD002801D40021C8421FBD96
:1005900010B501F055FC4042013010BD10B501F01E
:1005A00001FD002801DB002010BD012010BDC04668
:1005B00010B501F0F7FC002801DD002010BD01207E
:1005C00010BDC04610B501F079FC002801DC002008
:1005D00010BD012010BDC04610B501F06FFC002811
:1005E00001DA002010BD012010BDC0468446081C61
:1005F0006146FFE71FB500F0AFFB002801D40021E2
:10060000C8421FBD10B500F037FB4042013010BD9D
:1006100010B500F0A1FB002801DB002010BD012077
:1006200010BDC04610B500F097FB002801DD00208A
:1006300010BD012010BDC04610B500F045FB0028DC
:1006400001DC002010BD012010BDC04610B500F037
:100650003BFB002801DA002010BD012010BDC04680
:10066000F8B5430242004F024C00C00F9B09120E26
:10067000061C9C46240EC90FBF09884254D0151B86
:10068000002D00DC7BE0002C3ED1002F61D0013D2D
:10069000002D00D0A8E0DB1B141C061C590141D51D
:1006A0009A019509281C02F031FC053885408442E6
:1006B00000DD76E0001B1F242B1C411C221ACB40BE
:1006C00095401F1C2B1C5D1EAB413B4301250024A4
:1006D0000F201840042800D0043301210E40580197
:1006E00005D5FF2D5AD0B34C23402C1C0135EDB25B
:1006F000D908012D3BDD4B02590AE4B2E405214340
:10070000F607081C3043F8BDFF2A2BD08021CC040B
:10071000274301231B2D49DD6746FB1A141C061CC9
:100720005901BDD4651CD3E7151B002D4FDD002CEE
:1007300013D0FF2A5AD08024E1040F4301231B2D3C
:1007400000DCB0E06344141C590155D4651C061C40
:10075000BEE7551C141C061CBAE7002F7CD1551CA3
:10076000141CB5E7802763467D00FF24B0E700290D
:10077000C3D0002C28D08027FA031143BBE7002DFB
:1007800047D1501CC3B2012B00DC96E06446E51B48
:10079000680158D53D1B0E1C141C83E7FF24002163
:1007A000ACE7844B241A2B40651C91E73E1C2021AA
:1007B000EE404D1BAF403B1C5F1EBB4133436746C1
:1007C000FB1A141C061CABE74802410A96E7002DF1
:1007D0007FD1541CE1B2012953DDFF2C00D19BE0F5
:1007E000FB185B08951C73E7FF2A92D1061C80203A
:1007F00063464500FF246BE7671CFF2F3CD06D4A22
:1008000001261E4013405B083343A51C061C3C1CFC
:100810005EE76842002A25D0FF2C70D08022D604E3
:100820001D1C3543AC4601261B2809DC62462025E9
:10083000C2402B1A60469840061C701E8641164323
:10084000BB1B0E1C2AE7141C002D00D02AE7002633
:1008500001250423002442E7013D002D08D1FB18A7
:10086000141C71E7002B50D1651C3B1C0E1C2FE79C
:10087000FF2A00D062E7B9E780235D00FF2404234C
:100880002DE7002A7CD1002B00D1A0E0002F00D161
:10089000AEE0FB18590100D4AFE0464E02253340CC
:1008A0000124061C14E73C1C2023EC405D1BAF40D8
:1008B0003B1C5F1EBB41234344E7002A12D165461F
:1008C000002D41D1002FC2D03B1C0E1C012500245D
:1008D000FEE66D42002A23D1002B66D1651C3B1C2D
:1008E000061CF5E66246002A38D1002F07D1802287
:1008F00000265500304BFF24F1E6FF2C93D13B1C22
:1009000080270E1C7D00FF24E2E601380028F4D188
:100910006646BB1B0E1CC1E680277D000423DEE675
:10092000FF2C5BD08022D1040B439C4601231B2D5E
:1009300008DC20216246EA4063464D1BAB40591E4D
:100940008B411343DB19FFE6002F37D0EB1B5A0115
:100950004AD57B1B0E1C01250024B9E6002F00D1CF
:1009600000E78020D308C403234204D0FF082742B5
:1009700001D13B1C0E1C8021DB004D00FF24A7E6AB
:10098000002B1FD0002F00D1ECE68022DE08D5031B
:10099000311C2E4203D0F908294200D0311C061C1C
:1009A0008020CB004500FF2492E6013D002D13D1AD
:1009B000FB18C9E6FFFFFFFBFCFFFF0363460125B1
:1009C000002485E6802465003B1CFF2480E63B1C58
:1009D000061C012500247BE6FF2CA7D13B1C8027A9
:1009E000061C7D00FF2473E6002B00D12FE76DE687
:1009F0006346061C012500246AE6061C0125002426
:100A000066E6C046F0B55F4656464D464446F0B4ED
:100A10004502440083B00E1C6D0A240EC70F002C43
:100A200007D1002D00D091E0042101228846924692
:100A300009E0FF2C55D08023180400210543ED0068
:100A40007F3C88468A46331C58007602D90F760AC6
:100A5000000E8B464CD101229446002E00D081E03E
:100A60005B467B406246414601930A430F2A50D9B8
:100A7000201A690181467501A94200D3B3E0012221
:100A8000534299441B2400260127621E381C104043
:100A90004B007600002900DAA9E09D4200D8A6E0CC
:100AA000013C002C00DCABE000280CD0191C7600C7
:100AB0005B00002901DB9D4201D85B1B3E43013CEA
:100AC000002C00DC9CE059007200002B01DB8D4201
:100AD00001D8491B3A43013C4B0056000029EADA91
:100AE000EBE7002D2DD10820022180468A46AAE797
:100AF000FF2820D08022130400211E438C465B4631
:100B00007B4062464146F6007F3801930A430F2A34
:100B1000AED8564992008A589746019BFF26002579
:100B2000F0052843DE07304303B03CBC90469946AD
:100B3000A246AB46F0BD331C5A1E934102339C467D
:100B40008EE70C22032390469A467CE7281C02F08D
:100B5000DDF97622441F5342A5401C1A002080462E
:100B6000824670E7301C02F0D1F97623411F8E4097
:100B70005A420021101A8C4672E700233C4DFF2692
:100B8000CEE75F46351C01976346022BC5D0032B89
:100B900063D0012B43D049467F31002935DD0F2733
:100BA0002F40042F00D004352B0103D5314A49468C
:100BB00015408031FE29B0DCA801450ACEB2019B68
:100BC000AEE700260025ABE78020C1030D4211D01F
:100BD0000E420FD10E4373025D0AFF265B469FE76C
:100BE00001975346D1E7491B1A2401264CE75B1BAA
:100BF0003E4355E70D436A02550A3B1CFF268FE72B
:100C00001D1C6B1E9D413543C5E77E2467424A4645
:100C1000B91A1B2908DD019B0026002580E7019DEC
:100C200000262B4000257BE74E469E36281CB5400B
:100C30002B1C5D1EAB41C84003430F251D40042DF6
:100C400000D004335A0103D5019B0126002567E734
:100C50009C01650A019B002662E78027FC0325436F
:100C60006E02750A019BFF265AE7C04638650000F0
:100C7000FFFF7F00FFFFFFF74302420070B55C0AF1
:100C8000C60F130E48024A00450A120EC90FFF2B69
:100C900005D0FF2A08D0012093420BD070BD01205F
:100CA000002CFBD1FF2AF6D10120002DF6D1012026
:100CB0009342F3D1AC42F1D18E4203D0002BEDD15F
:100CC000002CEBD10020E9E7F0B5430242004F00D1
:100CD000C60F48025C0A450A130EC90F3A0EFF2BD5
:100CE00026D0FF2A29D0002B0CD1604260418446D7
:100CF000002A0AD0002816D18E4221D0002E14D10D
:100D0000012014E0002AF7D194466F426F416046FB
:100D1000002805D1002FEFD00120002E07D004E0DD
:100D20000020002F03D10029EAD101214842F0BD63
:100D3000002CD6D002225042F9E7002DD3D0F9E79B
:100D40009342DBDC04DBAC42D8D80020AC42EED2CC
:100D5000002EEAD00120EAE7F0B5430242004F003E
:100D6000C60F48025C0A450A130EC90F3A0EFF2B44
:100D700026D0FF2A28D0002B0FD0002A14D1944669
:100D80006F426F416046002814D00020002F03D12D
:100D900000290DD101214842F0BD604260418446E6
:100DA000002AEDD00028F3D18E4211D0002EF1D1CF
:100DB0000120F1E7002FF7D00120002EECD0E9E769
:100DC0000220002CE8D1D4E70220002DE4D1D2E7A4
:100DD0009342EBDC04DBAC42E8D80020AC42DBD22F
:100DE000002ED7D00120D7E7F0B55F4656464D46D6
:100DF0004446F0B44502460083B00F1C6D0A360E1F
:100E0000C40F002E06D1002D70D104210122884686
:100E1000924609E0FF2E43D08023180400210543A9
:100E2000ED007F3E88468A46381C43007F02C10F92
:100E30007F0A1B0E8B463AD10121002F62D1584602
:100E40006040424601900A430F2A3FD92C04F01813
:100E5000260C3B041A0C311C51433F0C2D0C7E43D5
:100E60006A438146080C36182C1CB3187C439A42FE
:100E700000D99AE009041D04080C2E18B5011B0CBA
:100E8000691E8D41B20EE7181543BC0125432B01A5
:100E90004BD50120284001216D088944054344E0D9
:100EA000002D1ED10820022180468A46BCE7FF2B78
:100EB00012D0802210040743584600216040424669
:100EC000FF007F3B01900A430F2ABFD890005B4A86
:100ED0008446624410688746391C4A1E914102319B
:100EE000ADE70C22032390469A469DE7281C02F0AA
:100EF0000DF87622461F5342B5401E1A0020804648
:100F0000824691E7381C02F001F87621431F4A42DD
:100F10009F400021131A92E70194514602292CD0D8
:100F2000032900D180E0012948D04E467F36002EAB
:100F300051DD0F242C40042C00D004352A0103D5A8
:100F40003F494E460D408036FE2E3DDD019B01247B
:100F50001C40FF210025C805E2072843104303B0C9
:100F60003CBC90469946A246AB46F0BD0024354DA8
:100F7000FF21F0E751460229D2D1019D01242C40E6
:100F8000FF210025E7E75E463D1C0196C6E73D1CB4
:100F9000C4E78026F3031D420BD01F4209D11F4333
:100FA0007A02550A5C46FF21D5E780225702E419F0
:100FB00060E71D436F027D0AFF21CCE7019B0025FE
:100FC0001940CCB20021C6E70198AD0101246D0A99
:100FD000F1B20440BFE77E2673424A469F1A1B2F98
:100FE00005DD019D01242C4000210025B3E7494681
:100FF0009E312C1C8D402E1CFC40751EAE4126439C
:101000000F203040042800D00436700105D5019F20
:1010100001243C40012100259DE7019AB3010124F0
:101020005D0A1440002196E78022D00305436C023C
:101030000199650A01240C40FF218CE778650000C6
:10104000FFFFFFF7FFFF7F0043024200590A00B590
:10105000130EC20F00207E2B0DDD9D2B0CDC80209B
:1010600000040143952B0ADC9620C31AD94048425C
:10107000002A00D1081C00BD02495018FBE7963B2E
:101080009940F4E7FFFFFF7F70B5041E3CD0C50F09
:1010900000D04442201C01F039FF9E21261C0B1A6F
:1010A000962B0ADC0838844061024C0ADBB2DB056F
:1010B0001C43ED07201C284370BD992B0ADD052237
:1010C000141A311CE140041C1B34A6400A1C711E7A
:1010D0008E41164305281BDC144C0F223440164069
:1010E000042E00D00434620105D59F231B1AFF2B68
:1010F0000CD00E4804405E1CF1B2E40801290ADD60
:101100006402640ADBB2D2E7002500230024CEE7A4
:10111000411F8E40E0E7002CF4D0002B03D080224A
:10112000D0030443ECE76602740AC0E7FFFFFFFB4D
:10113000F8B55F4656464D464446F0B40C03460F9C
:10114000640A3443A3465E001C03DB0F9C46630A1B
:1011500098464D00530F44461C436D0DC90F760D44
:10116000D2000F1CC000A1469246AB1B614500D1C6
:10117000A2E0002B00DCF0E0002E0CD1261C164370
:1011800000D1C0E0013B002B00D041E15C464B4662
:10119000821AE71A21E0D04EB54200D1C8E080247F
:1011A0004A4627043A439146382B00DD0AE11F2BBB
:1011B00000DD4BE12026F61A4C4652465746B44015
:1011C000B740DA4022433E1C4C46771EBE41DC400D
:1011D0003243261C5B46821A9F1B90428041464246
:1011E000BB1B141C2E1C0F1C180200D4A9E05D02AE
:1011F000690A88464246002A00D1D4E0404601F000
:1012000085FE051C083D1F2D00DDD5E02822131AA0
:10121000201C4146D840A940031C0B43AC40AE42C1
:1012200000DD8BE0AE1B711C1F2900DDFBE01F20E1
:10123000851B1A1C201CAA40C840AC401043661EE7
:10124000B4410443CB40012200260F202040042853
:1012500062D0201DA042A441614201255B182F40AD
:101260001C0207D59C4EB24200D198E09B4C161C44
:10127000234001325C07C00852050443DB08510DCE
:10128000012960DD1B0371051B0B4E0D00200021A1
:101290000A0D201C1105924C0B43760575081C4065
:1012A0002C4363005A08FF07111C39433CBC90468D
:1012B0009946A246AB46F8BD002B00DC8EE0002E1E
:1012C0002ED0854EB54200D1A6E080244E462204A1
:1012D0001643B146382B00DD16E11F2B00DD71E10E
:1012E0002026F61A4A46B240904652464446DA4014
:1012F00022435446B440261C741EA6414C46324339
:10130000DC401218F4E0041C0F206A1C5B462E1C03
:101310000F1C204004289CD101252F40201C9FE752
:10132000144300D0DEE06A1C5B46041C2E1C8CE7D4
:1013300080215B46041C0A012E1C86E7761B674D44
:101340002B40721C81E7251C1D4300D168E2002E52
:1013500041D080200203134394E7002B00D088E0A3
:10136000691C4E05740D012C00DC1BE15B46161C4C
:101370004C46821A191B90429B415B42C91A88460F
:101380000B0200D49EE0371ABA4592415E46A41B78
:101390005342E11A88463C1C2E1C67462AE7161C5D
:1013A0000023002472E7201C01F0B0FD2030051C52
:1013B000083D1F2D00DC29E7031C283B9C40231C13
:1013C00000242CE74A4653461A430026002A00D13F
:1013D00000E70122FEE61D032B0B57E7002B00D090
:1013E00005E16E1C7405630D012B00DCABE03A498E
:1013F0008E4200D131E11118814280414B46424278
:101400005B449B18DC0749080C435B08AA1C1CE7DB
:10141000314FBD4200D0C7E6041C80205B460F1C44
:1014200002012E1C11E7301C1F381A1CC240151C6B
:10143000202900D183E03F218E1BB3401C43631E53
:101440009C412C43012200230026FEE61C1C203C6C
:101450004F46E7403E1C202B73D04022D41A4B4607
:10146000A3401A1C57463A43531E9A413243002662
:10147000B0E65F42002D51D0174DAE4200D156E18B
:1014800080245A4621040A439346382F00DDDBE0CE
:101490001F2F00DD79E12021CC1B051C5A46A240FC
:1014A000FD40A04015435B46421E90412843FB404F
:1014B00057463C1AA24592414846C11A55424B1B19
:1014C000674691E6081C104331D100270122002312
:1014D00004200026C4E6C046FF070000FFFF7FFF90
:1014E000FFFF0F80013B002B24D153461A184C46B6
:1014F000824280415C444342E3182E1C141C1802B3
:101500003ED4721C0F1CA0E64A4653461A430024E0
:10151000002A00D1F5E601221218E9E75B460343F1
:1015200000D083E0231C721C544667468DE6141CD1
:101530002E1C5FE6CD4EB54200D0CBE66CE7002313
:101540007CE700228EE75E460643002D00D0F4E0E3
:10155000002E00D14CE14B46134300D17EE115181B
:101560004E46854280415E444242B3181E0200D47A
:1015700082E1BF4F2C1C3B4002220F1C012664E677
:10158000BA4D701CA8424BD0B94F012525406208C6
:101590003B402C1CDF0714433C43B21C5B08061C79
:1015A0000F1C52E65E460643002D2CD1002E00D0C3
:1015B0007DE04E46141C164387D04B4667460122F9
:1015C000002642E61E1C203E4C46F440261C202BE2
:1015D00000D1D8E04022D41A4B46A3401A1C5446EE
:1015E0002243531E9A4132430024121880E75B4283
:1015F000002D37D15C46044300D0D7E0721C4B4627
:1016000054460F1C21E6002E6ED14B46141C13438A
:1016100000D1DCE080254B4667462A01934E14E654
:101620008021061C0A010023042019E6013F002F37
:1016300079D1171A5B46BA45AD414946CA1A684284
:101640003C1C131A6746CFE55F4607430023002082
:10165000002F00D12CE701202AE780252A01002352
:101660000420FDE5814DAE4200D1D3E080245D46EB
:1016700022041543AB46382B00DDB0E01F2B00DD04
:10168000DBE02025ED1A021C5C46AC40DA40A840A5
:10169000451EA841224302435846D840031C5546E4
:1016A0005419544592414B4450421B1827E74A466F
:1016B0005646324300D185E0851B5B464C46A84226
:1016C0009241191B56428B1B1E0200D4ADE05746B7
:1016D0003D1A5B46AA458941E41A4A42A31A674665
:1016E0002C1C01220026B0E54D46161C154344D0A3
:1016F0005C468021C0086207E3080D0310432B42BB
:1017000000D181E04C46E10829427DD1F708660707
:101710003E430B1C6746700FDB008022F40003433E
:101720001201524E91E5514DAE4200D0ADE68020FF
:101730004B4654466746020187E5002E5ED04C4674
:1017400014431AD0C7088025584643072C03C00805
:101750001F43204208D04E46F308234204D152468C
:10176000D5087707181C2F43C300FC00780F0F1C07
:10177000802103430A013D4E67E5802632015B4626
:10178000041C3A4E61E5002229E7391C20395C46E9
:10179000CC40221C202F67D04023DF1B5D46BD407C
:1017A0002843431E98411043002381E6013B002B50
:1017B0002CD150445C469042AD414C446A42A3183F
:1017C000041C9CE65B46041C012200263DE58024A7
:1017D000042100272201274B4842244E40E55D4664
:1017E000054300230022002D00D158E7012256E7CF
:1017F000141C4B460F1C0122002626E5141C8022D7
:101800004B461201194E20E5061C84E7174A964202
:1018100000D030E70F1C80214B4654460A0114E5E6
:101820007605760D0023002430E5181C284300D1EE
:101830004BE62C1C0122002607E51C1C203C5D46C3
:10184000E5402C1C202B1CD04022D31A5A469A402B
:101850000243501E82412243002320E75B46041CC2
:101860000F1C01220026F0E4002599E7FF07000085
:10187000FFFF7FFFFFFF7F002C1C0F1C01220026B3
:10188000E3E40022E4E7C046F0B54D4644465F4637
:101890005646F0B41D1C4B00141C0E035B0DCA0F02
:1018A00087B0071C360B98469146002B1DD1321C81
:1018B000024300D181E1002E00D104E2301C01F08E
:1018C00025FB272800DDF8E12821031C083B0A1A24
:1018D000391C9E40D1400E439F40C14B0021181A35
:1018E000002280468A4600920FE0BE48834231D0F3
:1018F00080214B031E43BC487A0FF60000210023D1
:101900001643FF0080448A460093291C201C251C96
:101910004A000C03CB0F240B520D9B4625D1211CF2
:10192000014300D150E1002C00D1C2E1201C01F0A4
:10193000EDFA272800DDB6E1031C2822083B291C0C
:10194000121A9C40D1400C439D40A54B1A1A00200E
:10195000029019E0321C3A4300D029E10827022303
:10196000BA46002600270093CFE79E48824200D166
:1019700013E180214B031C439B49680FE4000023C3
:101980000443ED005218029348465B4643400298D8
:101990005146019301430F2900D8DFE043469A1ACC
:1019A0000492A64200D86EE171087B08F607334323
:1019B000FA07894698460292280E240204432D0213
:1019C0002704390CAB46250C00914846291CFEF72C
:1019D0001FFD009F061C4743291C4846FEF75CFD7F
:1019E000434608041A0C1043874207D90019013EE8
:1019F000844203D8874201D9013E0019C11B8A469F
:101A0000081C291CFEF704FD009B071C4343291CEE
:101A100050469946FEF740FD424610040B04010C67
:101A20000B43994504D91B19013F9C4200D864E13E
:101A300036043E435F464A46390C89469B1A59464E
:101A40003204170C0A0449467943120C03928C465F
:101A50000399300C7A4341434F4678438C44170C2A
:101A60006744B94202D9802149024018390C120456
:101A700040183F04110C7F18834200D227E100D1A7
:101A800041E102991B1ACF1BB942804141425A1AC7
:101A90009046A24200D15FE1101C291CFEF7B8FC61
:101AA000009B02904343291C40469A46FEF7F4FCF3
:101AB000380C090401438A450AD9029A0919013AE6
:101AC00002928C4204D88A4502D9013A029209193D
:101AD0005346C81A291C0590FEF79AFC009A291C47
:101AE0004243804605989246FEF7D6FC3F040D041B
:101AF0003A0C2A43924509D901214B4212199844C4
:101B0000944203D8924501D998441219029D434644
:101B10002F041F435046111A3804030C4D465D43F1
:101B20000398AC46039D3A0C584355434B465A43E1
:101B3000AC44030C63449D4202D980256D025219C6
:101B40001D0C000452191B04050C5B19914200D2B4
:101B5000E6E000D13DE1012217435AE08900234825
:101B60008C46604401688F46019B1E4A0026002770
:101B700000200021381C0F0D3C051D4D344312057B
:101B8000254015436E00DB077108194307B03CBCC4
:101B900090469946A246AB46F0BD211C032029433E
:101BA000029000D0F0E60223002400250293EBE629
:101BB0000C20032182460091A7E604270123BA46A0
:101BC000002600270093A0E60121002400250291B1
:101BD000DAE601270023074E7F42024AC8E7C046E3
:101BE0000DFCFFFFFF07000001FCFFFFB8650000D0
:101BF000FFFF0F80FFFF0F002F1C5A46029D261C7F
:101C00000192022DB0D0032D00D101E1012D00D1B0
:101C10009CE0049B82481A18002A00DC8CE00F2408
:101C20003C40042C05D03B1DBB42BF417D42761990
:101C30001F1CF10105D57B4A04998020C400164081
:101C40000A19794B9A4200DD8EE77507FF08760284
:101C500051052F43360B4A0D019B89E700220026D0
:101C6000002785E7802001030E4216D00C4214D1D4
:101C70000C432603360B5B462F1C6C4A78E74C4618
:101C80000194009DBDE7A64243D00498B8460138B0
:101C900000270490B14602978EE60E4333031E0BD5
:101CA000624A4B4664E7041C283CA5402C1C0025D6
:101CB0004BE601F02BF920303BE6061C283EB740EE
:101CC0003E1C002709E601F021F92030F9E5029ACF
:101CD000013E111C59445945924152421219D318E0
:101CE0009C4204D298426BD816D01B1ACBE6A34272
:101CF000FBD18B45F6D9231AC5E6994500D897E65E
:101D0000013F1B1994E6029ABA42E0D302990023DC
:101D1000B9E6AF42B9D947E68F4251D80023B2E6BF
:101D20000919013F58468C4219D9914200D012E757
:101D3000984200D00FE76CE73D4C049D631B382BA5
:101D40001CDD019B00220026002711E7019B0022D9
:101D50002B40002600270BE701277F4259E78A42E4
:101D600003D800D0F7E69842E2D25D4668005845B5
:101D7000AD416D422C19013F0919D6E71F2B34DC08
:101D8000049C2C4A381CA518311CAF40D840A940EF
:101D90003C1C0143671EBC410F1C2743DE400F2340
:101DA0003B40042B05D03A1DBA42BF417D42761913
:101DB000171C320211D5019B012200260027D7E60D
:101DC00059445945924152421219D318013E1B1AE7
:101DD00059E6002BA4D10020AAE77007FF08710282
:101DE00007430E0B019B0022C2E61349049C301CE2
:101DF0000A1BD040051C202B08D0104BE1188E4048
:101E000037437B1E9F412F430026C8E70026F7E794
:101E100080221003064331030E0B019B034AA7E601
:101E2000FF030000FFFFFFFEFE070000FF070000AA
:101E300002FCFFFF1E040000E2FBFFFF3E04000067
:101E4000F0B5944647461A03061C580080B4170B99
:101E5000420D19480D034C00DB0F2D0B640DC90F0B
:101E60009846844208D0144882420DD00120944202
:101E700012D004BC9046F0BD2B1C33430120002B34
:101E8000F7D10D488242F1D163463B430120002B3C
:101E9000EFD101209442ECD1BD42EAD16645E8D1B0
:101EA000414506D0002CE4D1281C3043451EA841F2
:101EB000DFE70020DDE7C046FF070000F0B557462A
:101EC0004E464546E0B4041C4E000803C90F8A463E
:101ED000171C59001A03050B700D160B4A0D3049DB
:101EE000DB0F9C46884232D02D498A4235D00028EB
:101EF0000FD1291C21434B424B419846002A0BD05D
:101F0000002B1AD1E2452CD05546002D18D10120C6
:101F100018E0002AF6D19046311C39434B424B4120
:101F20004146002906D1002BECD056460120002E58
:101F300008D005E00020002B04D16746002FE6D131
:101F4000012358421CBC90469946A246F0BD2B1C6A
:101F50002343C9D002214842F4E7331C3B43C6D097
:101F6000F8E7904205DC09DA5246002AE8D0012061
:101F7000E8E75446002CE3D10120E3E7B542C3D89B
:101F800007D00020B542DDD250460028D8D001202D
:101F9000D8E7BC42B8D80020BC42F5D3D2E7C0464F
:101FA000FF070000F0B544465F4656464D46F0B484
:101FB0009446061C1A035800170B420D2E480D03B9
:101FC0004C00DB0F2D0B640DC90F9846844233D0B3
:101FD0002948824236D0002C19D0002A20D19346BD
:101FE00063463B43584258415B468246002B1DD016
:101FF00051460020002904D14246002A14D1012470
:1020000060423CBC90469946A246AB46F0BD2B1CB4
:102010003343584243419B46002AE1D0002BEBD189
:10202000414515D00029EAD10120EAE70028F7D080
:1020300001200029E5D0E2E72B1C33430220002BCE
:10204000DFD1C5E763463B430220002BD9D1C2E76D
:102050009442E7DC05DBBD42E4D806D00020BD4257
:10206000CFD20029CBD00120CBE76645DAD80020BB
:102070006645F6D3C5E7C046FF070000F0B55646F3
:1020800044465F464D46F0B44F001D1C0B03141C24
:102090001A0B7B0D87B0061C92469846CF0F002B7B
:1020A00021D1024300D149E15346002B00D1E4E1A4
:1020B000504600F02BFF031E272B00DDD8E1083B24
:1020C0005146994028228846111A321CCA4041467E
:1020D0000A4392469E40D84B0022181A002180469F
:1020E0009146039111E0D54883423ED0802153466A
:1020F0004A031A43D000710F0843D14A8246002395
:102100000020F600904499460390291C201C251CB1
:102110004A000C03CB0F240B520D9B4631D1211CDE
:10212000014300D112E1002C00D19DE1201C00F000
:10213000EDFE272800DD91E1031C2822083B291C25
:10214000121A9C40D1400C439D40BB4B59461A1A71
:10215000794000204B46019103430F2B26D899006C
:10216000B84B8C46634419688F46111C314300D02C
:10217000DFE0082600200221B146824600260391B6
:10218000C3E7AE48824200D1C9E080214B031C4323
:10219000AB49680FE4000443ED0052180020594693
:1021A00079404B46019103430F2BD8D94244330465
:1021B000290404921A0C0F0C101C7843360C331CA3
:1021C00080462D0C7B43301C6843111C69439C46A0
:1021D00043468346180C08186044844500D91FE123
:1021E000010C4346039119040B0C0004C018210490
:1021F000240C0590101C6243090C02924843321CC7
:1022000066434A43029BB146060C9046B4461A1CEC
:1022100062444244904502D9802673029944160CC8
:10222000B046C14400044B46060C120402939319B5
:1022300056463204100C021C6A439C46031C7B4326
:102240009146320C574398461B0C9A46D144B944E8
:1022500055434F4502D980277E02AD194B461F0CCE
:102260004646ED191F0433041E0C031C4B43604308
:10227000514354431A0C8018B046401847449A46BC
:10228000814202D980214E02A419039B1A1C624488
:102290005A44624589414E425146B34603040E04F6
:1022A0009C460299330C6344CE18B046C246DA44C9
:1022B000D219BA42BF4151467B426F18F91899466C
:1022C000DA459B415E42029BB3469845B641764251
:1022D0005B461E43000C49459B41AF42AD41361859
:1022E0006F4258423843361805983419560206434F
:1022F000CB0D6402701E8641D20D164349021C4369
:102300000E43E0012FD50127049D374073083E1C82
:10231000E00701351E4304950643640823E0231CAF
:102320002B430320002B00D039E700240025022096
:1023300035E70C22032391460393E6E604260023A7
:102340000120B1469A4600260390DEE600240025CF
:10235000012024E703985446022844D0032800D1E2
:10236000EAE0012860D0049A37495018002800DCC0
:1023700095E00F273740042F05D0311DB142B641FB
:10238000754264190E1CE10105D53048049A80237A
:10239000DF000440D0192E49884224DC019B6507E8
:1023A000F6086402420501272E43240B520D1F40FC
:1023B00000200021090D0D052543264C12052C4057
:1023C00014436300301C5E08FF07311C394307B01B
:1023D0003CBC90469946A246AB46F0BD5A462E1CE0
:1023E00001920228BAD1019E01273740134A0024E6
:1023F0000026DDE7544601970398ADE70126002744
:10240000154C76420D4AD3E72E1CA5E78022130314
:102410005146194235D10B431D032C0B074AC7E720
:1024200080214B029B44DBE6019B00221840C7B28F
:1024300000240026BCE7C0460DFCFFFFFF0700009C
:1024400001FCFFFFF8650000FF030000FFFFFFFE37
:10245000FE070000FFFF0F80FFFF0F00041C283C59
:10246000A5402C1C002570E600F050FD203060E6F1
:10247000283B9E40B24600262DE600F047FD203066
:1024800019E61C4206D11C432603340B5F462E1C62
:102490002E4A8DE70B431803040B2C4A88E72C4F78
:1024A000049D7B1B382B06DD019E0127374000224F
:1024B000002400267CE71F2B21DC049A254F351CC5
:1024C000D119201C8E40DD408840321C2843561E06
:1024D000B241061C1643DC400F233340042B05D0C9
:1024E000371DB742B641714264183E1C250217D50C
:1024F000019B01271F4001220024002658E71648AF
:10250000049A211C871AF9400D1C202B12D0134B62
:10251000D01884402643721E96412E430024DBE7E8
:10252000019A6507F6086002012717402E43040B45
:1025300000223DE70024EDE780210F033C43019892
:1025400024030127240B0740004A31E7FF0700005E
:1025500002FCFFFF1E040000E2FBFFFF3E04000040
:10256000F0B557464E464546E0B4071C0D034E00F5
:10257000680ACC0F790F08438446111C18035A00CF
:10258000FD00400ADF0F4B0F1843C74BC900760D03
:10259000520D8A469A4200D1DEE001235F40B946DF
:1025A000BC4200D1A6E0B71A002F00DC0BE1002AE4
:1025B00012D15246024300D1D2E0013F002F00D099
:1025C0005BE151466F1ABD42AD4162466B42101A43
:1025D0003D1CC31A371C24E0B34A964200D1DEE00A
:1025E00080210B041843382F00DD1EE11F2F00DD72
:1025F00060E12021C91B021C53468A40FB401A435C
:1026000053468B40191C4B1E9941031C0A43FB4047
:10261000AA1A67469542AD41F81A6B42C31A151CB7
:10262000371C1A0200D4C2E05E02710A8846424694
:10263000002A00D1EBE0404600F068FC021C083A9A
:102640001F2A00DDECE02823181A2E1C4146C64044
:102650009140331C0B439540974200DDA4E0D01B12
:10266000411C1F2900DD0DE11F273A1A2E1C181CE2
:10267000CE409040954030436A1E9541CB40054383
:10268000012100270F262E40042E00D170E02E1DC0
:10269000AE42AD41684201221B181440180207D512
:1026A000814FB94200D1AEE0804D0F1C2B4001316B
:1026B000F20849055E073243DB08480D012800DCBB
:1026C00077E01B037F051B0B7E0D002000210D0D05
:1026D000101C2905764A0B4377057E081A403243C1
:1026E00053005D08291CE40721431CBC9046994611
:1026F000A246F0BDB31A002B00DCA3E0002A3BD0B9
:10270000694A96424BD080210F043843382B00DCB5
:1027100014E15346184300270022002800D001226C
:102720005219AA42AD4167446B42FB18151C371C75
:102730001E023CD55C487E1C864200D177E15B4995
:1027400001222A400B406808151CD90705430D4398
:102750005B08B91C371C95E7014300D11DE71EE754
:10276000711C371C0F2663462E40042E00D08EE7C6
:10277000012214402E1C91E752460243F0D0013B47
:10278000002B09D157467919A9429241554260441C
:102790004319371C0D1CCBE743498E42B6D180202C
:1027A00063460101371C6DE7BF1A404A1340791C8C
:1027B00068E7151C1D4300D120E2002F3ED0802683
:1027C00031030B437DE7002F00D085E0721C5105DB
:1027D0004B0D012B00DCEFE05746EA1B95429B4175
:1027E0006746391A5B42C91A88460B0200D49CE03E
:1027F0005446651BAA459241C01B5742C31B9846CD
:10280000371C4C4613E70E1C002300225DE7281CF2
:1028100000F07CFB2030021C083A1F2A00DC12E783
:10282000283885402B1C002516E7574638430023DF
:102830000022002800D1EBE60122E9E61803030B91
:10284000002642E7002B00D0D8E0771C79054A0D1E
:10285000012A00DC94E0144B9F4200D1FDE0514678
:102860004919A942AD4162466B428018C218490815
:10287000D5070D435308B11C04E70B498E4200D025
:10288000B1E68CE7061C1F3E1F1CF7403E1C2029AA
:1028900072D03F22101A83401D436B1E9D41354369
:1028A000012100230027EDE6FF070000FFFF7FFF67
:1028B000FFFF0F803B1C203B011CD9400B1C202F2D
:1028C0005CD04022D71BB840021C50460243511E28
:1028D0008A411A4300239BE67F42002E40D0CA4C17
:1028E000A24200D11FE1802166460B041E43B4467C
:1028F000382F00DDA9E01F2F00DD3DE12023DE1B86
:10290000291C6446B440F940B5406B1E9D412143EB
:1029100063460D43FB4057467D1BC01AAA459B41A9
:102920005F42C31B4C46171C7BE60D1C154320D190
:1029300000240121002304260027AFE61F2B4ADCD8
:102940002021C91A071C52468F40DA403A435746A5
:102950008F40391C4F1EB941D8400A43071CDFE69F
:1029600064462C4369D1511C031C5546171C4C4628
:1029700088E6151C371C5AE600238DE70022A4E7E1
:1029800067462F43002E00D0D4E0002F00D126E16F
:102990005346034300D1E4E051464F19AF42AD41E5
:1029A00060446E4283191E0200D44EE197483D1CDC
:1029B00003400221012765E661462943002E29D103
:1029C000002976D151460143B2D0031C55464C46EE
:1029D0000121002756E61F1C203F011CF9400F1C57
:1029E000202B00D1C6E04022D31A9840021C50464A
:1029F0000243531E9A413A43002791E65B42002E60
:102A000030D167462F4300D0C8E0511C031C554607
:102A1000171C37E6002965D15746074300D1C8E0A7
:102A2000031C802055464C460101774F2AE680233F
:102A3000371C19010426002330E6013F002F6ED118
:102A400054466146651B401A68E767463D430023CC
:102A5000002D00D15FE701255DE7802631010023CD
:102A600004261BE668498A4200D1C1E080276646F9
:102A700039040E43B446382B00DDA2E01F2B00DDE5
:102A8000D0E02021C91A2E1C67468F408D40DE40C1
:102A90003E43291C67464D1EA941DF40351C0D43AE
:102AA0003E1C554455459B4130185E428319171C06
:102AB0003EE65646064354D05746EA1B63469542C7
:102AC000B641191A7342CB1A1E0200D4A2E07D1B34
:102AD0006446AA45BF41001B7A42831A4C46012135
:102AE0000027CFE5564606433FD062468021570770
:102AF000ED08D3080A033D43134208D0C608164226
:102B000005D15546EC0845072543331C4C46680F54
:102B1000DB0080260343ED0031013B4FB2E53A492B
:102B20008A4200D0E4E68026031C55464C4631011B
:102B3000171CA7E5002F4CD05346034315D062461F
:102B40008026ED085107D30837030D433B42DED002
:102B5000C2083A42DBD15546E9084507131C0D432C
:102B6000D5E76346012100278CE5802739016346BC
:102B7000254F87E500223AE73C1C203C6646E640AC
:102B8000331C202F5FD04024E71B6646BE40311C1B
:102B90000D43691E8D411D430023BCE6013B002B04
:102BA00022D155445545BF417B426044C318171C90
:102BB000BEE58021042200240901154B5642124F24
:102BC0006CE563461D430026002D00D169E7012511
:102BD00067E78022031C554611010B4F52E5031C89
:102BE0005546012100274DE507498A4200D042E7BA
:102BF0008021031C55460901171C43E57A05560D33
:102C00000023002261E5C046FF070000FFFF7FFFB1
:102C1000FFFF7F001D1C154300D189E6151C012113
:102C200000272FE51F1C203F6146F940202B10D0C4
:102C30004026F31A67469F403B1C1D436B1E9D4177
:102C40000D4300262DE70021A2E73D1C01210027AE
:102C500018E50023F1E7C046F8B5041E2DD0C50FD6
:102C600000D04442201C00F051F916490A1A0A28E3
:102C700016DD0B388440570526037A0D360B0027E6
:102C800000200021381C0F0D3B050F4C33431C4026
:102C90001605344361004A08ED07111C2943F8BDAD
:102CA0000B26011C301A1531231CC4408B405205E1
:102CB00021031F1C0E0B520DE2E700250022002607
:102CC0000027DDE71E040000FFFF0F8070B5041E23
:102CD00026D000F01BF914490A1A0A2813DD0B3814
:102CE000844056052403720D250B00260020002188
:102CF000301C0E0D33050D4C2B4311051C400C43AD
:102D00006500690870BD0B23051C181A1535211CB8
:102D1000C440A940520525030E1C2D0B520DE5E7BA
:102D2000002200250026E1E71E040000FFFF0F80BF
:102D3000410070B50E0E731C4202C50FD8B2540A82
:102D4000012815DD6307E024A000120B34180020D1
:102D50000021181C0B0D1E051C4B324361054C084D
:102D6000134023435A005608ED07311C294370BD18
:102D7000002E16D1002C1ED0201C00F0C7F80A2807
:102D80001DDC0B22111A021C231C1532CB4094406F
:102D90001E1C231C34030E4E220B301A41054C0D11
:102DA000D5E7002C03D06307120B0A4CCFE7094C80
:102DB00000220023CBE7002400220023C7E7011CE8
:102DC0000B398C40261C0023E4E7C046FFFF0F8030
:102DD00089030000FF070000F0B5041C4800400D07
:102DE0000B03CD0F411C620F5B0A4F051343E60036
:102DF0007A0D012A35DD3E494218FE2A18DD80236E
:102E00005900FF220423580105D5FF293FD0394F2F
:102E10000A1C3B400131CCB2DF08012C19DD7902DC
:102E20004F0AD2B2D2051743ED07381C2843F0BD34
:102E3000002A2FDDA401770F611E8C41DB002E4E8E
:102E4000234381193B430F261E40042EDBD004335D
:102E5000D9E7002FE5D0002A16D08020C6033743DB
:102E6000DDE7002806D133430121002B15D10423CF
:102E70000022C8E71E43C2D08024DB00A0048026C5
:102E800003437100FF22DEE77B025F0ACAE7FF22ED
:102E90000027C7E7173203DA012105230022B2E732
:102EA0008022164F11040B433C1A1F2C0DDC1449D1
:102EB000321C4718BE40301CBB40461EB041E240A9
:102EC0000343134301210022BDE70E4A1F1C111AC0
:102ED000CF403A1C202C09D00B4C001983403343BF
:102EE0005E1EB341134301210022ACE70023F6E745
:102EF00080FCFFFFFFFFFFFB81FCFFFF9E03000044
:102F000082FCFFFF7E030000A2FCFFFF1C210123C7
:102F10001B04984201D3000C10391B0A984201D3BC
:102F2000000A08391B09984201D30009043902A29A
:102F3000105C40187047C046040302020101010101
:102F4000000000000000000090B585B000AF786080
:102F5000194BFB60FB687A681A61FB6801229A6072
:102F6000FB6801221A71FB68144A9A81144BFA68B3
:102F70001A64002000F05AF8021CFB681A60FB6813
:102F80001B68002B04D10E4B00221A6400230EE0B4
:102F9000FB681C68FB681B68181C00F037F9031CF1
:102FA00001221343201C191C00F0B2F8FB68181C06
:102FB000BD4605B090BDC04624F0FF1F60EAFFFF8C
:102FC00068F0FF1F80B584B000AF7860164B1B6CB3
:102FD000FB60FB681A683B1C0A33101C00211A1C9A
:102FE00000F04CF9FB689A893B1C0A331B88D31804
:102FF0009AB23B1C0A331A80FB681A683B1C0A33DE
:103000001B88101C00211A1C00F00CF9FB689A6840
:103010000123134004D0FB681B69181C01F048FE13
:10302000BD4604B080BDC04668F0FF1F80B584B0C7
:1030300000AF78602D4BDB6B002B45D12C4BFB6038
:10304000FB687A689A60FB6801221A71294BFA685A
:103050001A60294B284A526920210A435A61274B9A
:1030600000221A60254B00225A60244B0022DA60AD
:10307000224B00225A61214B214A9A601F4B502259
:103080005A611E4B1F4A9A61FB6801221A601E4A50
:103090001D49C4239B00C9581C4B0B408021C9010A
:1030A0001943C4239B00D150174B802292021A600F
:1030B000154A80230021D150104B0B221A600B4B74
:1030C000FA68DA63FB680CE0084BDB6BFB60FB68BB
:1030D0007A689A60FB681B790133DAB2FB681A716F
:1030E000FB68181CBD4604B080BDC04668F0FF1FD9
:1030F00038F0FF1F44F0FF1F0080044000800340B1
:10310000FFFF000060EA000000E100E0FF3FFFFF7A
:1031100090B585B000AF786039607B68FB603B6834
:103120000122934301D0802364E03B1C0B33EFF377
:10313000108072B61870314B1B78DBB20133DBB2F2
:103140002E4A191C1170012B04D13B1C0B331A7829
:103150002B4B1A703A680123134026D029492A4B79
:103160001B78181C274A284B1B780133DB00D31827
:103170005B6880221C1C9443221C431CDB00CB1880
:103180005A602049204B1B78181C1E4A1E4B1B7886
:103190000133DB00D3185B68C022934340221A43FB
:1031A000431CDB00CB185A6012E01649164B1B7803
:1031B000181C144A144B1B780133DB00D3185B68CE
:1031C000C0221C1C9443221C431CDB00CB185A60F9
:1031D000FB683A681A60094B1B78DBB2013BDBB233
:1031E000064A191C1170002B03D1054B187880F387
:1031F00010880023181CBD4605B090BDA1F1FF1F2B
:10320000D4F1FF1F008003403866000080B584B011
:1032100000AF78607B68FB60FB681B68181CBD46CC
:1032200004B080BD80B582B000AF7860FB1C19701F
:103230003B1C1A80FB1C1B78002B01D0822313E05F
:10324000FB1C1B780A4AD35C002B01D009230BE03E
:103250000849FB1C1B78084AD35C3A1C12880133CE
:10326000DB00CB189A600023181CBD4602B080BD5D
:103270003C660000008003403866000080B584B0E2
:1032800000AFF8607A603B1C0B330A1C1A703B1CC1
:103290000B331B78002B01D0822316E03B1C0B3331
:1032A0001B780C4AD35C002B01D009230DE00A4A9D
:1032B0003B1C0B331B780949CB5C0133DB00D31873
:1032C0009B689AB27B681A800023181CBD4604B024
:1032D00080BDC0463C6600000080034038660000A8
:1032E00090B583B000AF1B4B1B683B6000237B6035
:1032F000194A1A4B1B780133DB00D3185A68802314
:10330000134003D07B68012213437B603B681A683B
:103310007B6813407B607A680123134017D00E4905
:103320000E4B1B78181C0C4A0C4B1B780133DB002E
:10333000D3185B6880221C1C9443221C431CDB00B6
:10334000CB185A603B689B68181CFFF73BFEBD46D4
:1033500003B090BD44F0FF1F0080034038660000BA
:1033600080B584B000AF78603C4B5B6B002B63D1C1
:103370003B4BFB60FB687A68DA60FB6801221A72DB
:10338000384BFA681A60384B374A526980210A4331
:103390005A61364B04225A65344B00221A60334B73
:1033A0000022DA64314B00225A60304B0022DA608E
:1033B0002E4B00225A612D4B0022DA612B4B00224A
:1033C0005A622A4B0022DA62284B00225A63274BAA
:1033D000274A9A60254B2C22DA60244B00221A617E
:1033E000214B214A126903218A4302210A431A61AF
:1033F000FB68802252001A60FB6808225A601D4A4E
:103400001C49C4239B00CB589B009B088021C90505
:103410001943C4239B00D150164B802212031A601B
:10342000144A80230021D150104B49221A600B4BC3
:10343000FA685A63FB680CE0084B5B6BFB60FB6847
:103440007A68DA60FB681B7A0133DAB2FB681A72B9
:10345000FB68181CBD4604B080BDC04668F0FF1F65
:1034600048F0FF1F58F0FF1F0080044000A00340F9
:103470005FEA000000E100E080B584B000AF786052
:1034800039600B4B9A683B1C0E331A803B1C0E3381
:103490003A1C0E32128801321A803B683A1C0E32F6
:1034A00012881A800023181CBD4604B080BDC04697
:1034B00000A0034080B582B000AF7860FB1C19709B
:1034C0003B1C1A80FB1C1B78002B01D0822313E0CD
:1034D000FB1C1B780A4AD35C002B01D009230BE0AC
:1034E0000849FB1C1B78084AD35C3A1C128801333C
:1034F000DB00CB189A600023181CBD4602B080BDCB
:103500004466000000A003404066000080B582B021
:1035100000AF134B1B683B6000237B60114B1A68A4
:103520008023134004D07B688022520013437B60C9
:103530003B681A687B6813407B607A6880235B0075
:1035400013400AD0074B074A126880218A431A6049
:103550003B68DB68181C00F047F8BD4602B080BD30
:1035600058F0FF1F00A0034080B584B000AF786022
:10357000104BFB60FB687A689A60FB6801221A7145
:10358000FB680022DA800C4BFA689A630020FFF790
:10359000E7FE021CFB681A60FB681B68002B04D165
:1035A000054B00229A63002300E0FB68181CBD460F
:1035B00004B080BD5CF0FF1F68F0FF1F80B584B0D1
:1035C00000AF78600A1CBB1C1A807B68FB60FB683C
:1035D000BA1C1288DA807B68181C00F017F80023E8
:1035E000181CBD4604B080BD80B584B000AF7860C3
:1035F000054B9B6BFB60FB689B68181C00F03AF85E
:10360000BD4604B080BDC04668F0FF1F80B586B0DF
:1036100000AF78607B683B613B691A683B1C0E33E6
:10362000101C191CFFF728FF3B1C0E331B88002BB6
:1036300005D13B1C16333A69D2881A800CE03B1C3A
:103640000E331B883A69D2885343802212029B189A
:103650001A0C3B1C16331A803B691A683B1C163344
:103660001B88101C00211A1CFFF724FFBD4606B062
:1036700080BDC04680B582B000AF786001F014FB19
:10368000BD4602B080BDC04680B500AF002001F04D
:1036900023F8002000F0A6FE002000F055FE0020D8
:1036A00000F00AFE002000F093FC002000F058FD1E
:1036B000002000F0F1FC002000F026FC002000F0CB
:1036C000B3FD002000F0A4FF002000F03DFF00202B
:1036D00000F0D6FE0020FFF747FF0020FFF734FC84
:1036E000BD4680BD80B584B000AF7860634BFB60A1
:1036F000FB68634A1A60FB687A681A62FB680822F2
:103700001A71FB6801225A71FB6802229A71FB68E8
:1037100001221A73FB6802221A75FB68594A9A60E3
:10372000FB68594A1A61FB68584A9A61FB68002293
:103730001A77FB6800225A77554B554A5269802107
:1037400009020A435A61534BFA681A60524BFA68ED
:103750001A604F4B4E4A1169504A0A401A61504A4A
:103760004F49C7239B00CB589B009B088021C9056C
:103770001943C7239B00D150494B802212061A607F
:10378000474A80230021D150454A4549C7239B0021
:10379000C958444B0B408021C9031943C7239B00E0
:1037A000D1503F4B8022D2051A603D4A8023002130
:1037B000D150334BC0225A70314B01221A70304B1A
:1037C0000022DA722E4BFF221A752D4BFF225A75FA
:1037D0002B4BFF229A752A4BFF22DA75284BFF22CA
:1037E0001A77274BFF225A77254BFF229A77244BD3
:1037F000FF22DA77224BFF221A74214BFF225A74E0
:103800001F4BFF229A741E4BFF22DA741C4BFF22BF
:103810001A761B4BFF225A76194BFF229A76184BC9
:10382000FF22DA76164B03229A70154B7E22DA704D
:10383000FB6800221A77124B114A1278D2B201218A
:103840008A43D2B21A70C0460D4B5B78DBB21A1CA9
:1038500001231340F8D10A4BC2221A71084B084ABF
:103860005279D2B201210A43D2B25A710E4BFA6890
:103870001A63FB68181CBD4604B080BDACF0FF1F86
:103880000040024048660000506600004C660000A0
:1038900000800440D0F0FF1FD4F0FF1FFFFFFEFFA9
:1038A00000E100E0FFFF3FFF68F0FF1F90B589B027
:1038B00000AFF8607A603B1C0B330A1C1A70FB687F
:1038C000BB61CC4A3B1C173392791A70BB695B7998
:1038D0003A1C0B3212789A4201D9862385E13B1CAF
:1038E0000B331B7801229A403B1C16331A70BB69BC
:1038F0001B7D3A1C163212781340DBB2002B01D12B
:10390000822372E17B681A7BBB691B799A4201D9D9
:103910008C236AE17B681B79012B01D9952364E133
:10392000BB699A683B1C0B331B78D3181B780122A8
:103930009A403B1C15331A703B1C17333A1C153246
:103940001B7812781340DBB2002B01D108234CE125
:103950003B1C1433EFF3108072B61870A64B1B7823
:10396000DBB20133DBB2A44A191C1170012B04D164
:103970003B1C14331A78A14B1A709E4B3A1C15321B
:1039800012789A727B681B68002B55DA994A7B681B
:103990001B685B005B085B0DD9B23023D154954A9C
:1039A00094493123CB5CD9B218230B40D9B27B6840
:1039B0001B685B005B089B0CDBB25B01D8B27B68C9
:1039C0001B685B005B08DB0BDCB207232340DBB228
:1039D0000343DBB20B43DBB208210B43D9B23123E3
:1039E000D154844A7B681B685B005B08DB09D9B251
:1039F0003223D1547F4A7F493323CB5CDBB2DBB225
:103A0000191C01230B40D9B27B681B68DBB25B0039
:103A1000DBB2DBB20B43DBB2D9B23323D154754AEC
:103A200074493123CB5CDBB2DBB208210B43DBB240
:103A3000D9B23123D15425E06E4A7B681B68DB087C
:103A4000D9B23023D1546B4A6A493123CB5CDBB203
:103A5000DBB2191C17230B40D9B27B681B68DBB2A1
:103A60005B01DBB2DBB20B43DBB2D9B23123D15401
:103A7000604A60493123CB5CDBB208218B43D9B269
:103A80003123D1545B4A7B68197C3D23D1547B6838
:103A90001B79002B4CD13B1C1F3300221A7015E000
:103AA00054483B1C1F3319787B689A683B1C1F33B2
:103AB0001B78D3181A7830234118CB181A713B1C85
:103AC0001F333A1C1F32127801321A707B681B7B3D
:103AD0003A1C1F3212789A42E2D3464A45493C23A7
:103AE000CB5CDBB2DBB20F218B43D9B27B681B7B93
:103AF000DBB20B43DBB2D9B23C23D1547B681B68E9
:103B0000002B0ADA3B4A3B493323CB5CDBB2012171
:103B10008B43D9B23323D15431E0364A354931236E
:103B2000CB5CDBB210218B43D9B23123D15426E0D8
:103B3000304A30493C23CB5CDBB20F218B43D9B2F6
:103B40003C23D1547B681B68002B0CDA294A294995
:103B50003323CB5CDBB2DBB201210B43DBB2D9B246
:103B60003323D1540BE0234A22493123CB5CDBB20F
:103B7000DBB210210B43DBB2D9B23123D1541D4A41
:103B80003E23D35CDBB21B029AB21A493F23CB5CC3
:103B9000DBB213439BB29AB27B68DA81154B3A1CB5
:103BA000153212789A71BB691A7F3B1C15331B784A
:103BB0001343DAB2BB691A770E4B0E4AD279D1B2EF
:103BC0003A1C153212780A43D2B2DA710A4B1B78CA
:103BD000DBB2013BDBB2084A191C1170002B03D188
:103BE000064B187880F310880023181CBD4609B0D6
:103BF00090BDC04600400240A1F1FF1FD4F1FF1F5D
:103C000080B588B000AFF8607A603B1C0B330A1CAB
:103C10001A70FB68BB61BB695B793A1C0B32127886
:103C20009A4201D98623E4E03B1C0B331B78012226
:103C30009A403B1C17331A70BB691B7B3A1C173226
:103C400012781340DBB2002B01D18223D1E06B4B01
:103C50001B79DBB21A1C0123134001D10A23C8E0EF
:103C60003B1C1633EFF3108072B61870644B1B7850
:103C7000DBB20133DBB2624A191C1170012B04D193
:103C80003B1C16331A785F4B1A705C4A2123D35CB5
:103C9000DBB21A1C0823134035D0584A2023D35CCA
:103CA000DBB25A0555492123CB5CDBB25B09DBB2A1
:103CB0009B041A4351492123CB5CDBB2191C072317
:103CC0000B40DB031A434D492223CB5CDBB2DB0103
:103CD0001A434A492323CB5CDBB25B08DBB21343B4
:103CE000802212061A437B681A60444A2323D35C5D
:103CF000DBB21A1C012313405A1E9341DBB21A1C7B
:103D00007B681A711CE03D4A2023D35CDBB2DA00E9
:103D10003A492123CB5CDBB25B09DBB21A437B68F7
:103D20001A60364A2123D35CDBB21A1C10231340DD
:103D30001B11DBB25A1E9341DBB21A1C7B681A714D
:103D40002E4A2C23D35CDAB20F231340DAB27B68FD
:103D50001A732A4A2E23D35CDBB21B029AB227497C
:103D60002F23CB5CDBB213439BB29AB27B68DA8120
:103D70007B681B79012B22D03B1C1F3300221A7059
:103D800016E07B689A683B1C1F331B78D3181B48CE
:103D90003A1C1F321178202241188A181279D2B2A7
:103DA0001A703B1C1F333A1C1F32127801321A70F2
:103DB0007B681B7B3A1C1F3212789A42E1D30F4B6F
:103DC00001221A710D4B0D4A5279D2B201210A43D8
:103DD000D2B25A710A4B1B78DBB2013BDBB2084A04
:103DE000191C1170002B03D1064B187880F3108832
:103DF0000023181CBD4608B080BDC04600400240EC
:103E0000A1F1FF1FD4F1FF1F80B584B000AF2D4B8F
:103E10001B68BB603B1C0F3301221A70BB681A7F02
:103E2000294B9B79D9B2FB1D0A401A70FB1D1B78E8
:103E3000002B44D0244B244AD279D2B2F91D097800
:103E4000C943C9B20A40D2B2DA71BB681B7FFA1DFE
:103E50001278D243D2B21340DAB2BB681A773B1C55
:103E60000E3300221A7023E0FB1D3A1C0F321B7820
:103E700012781340DBB2002B0CD0BB681A6ABB6807
:103E800099693B1C0E331B78CB181B78101C191C2E
:103E900000F0E8FE3B1C0F333A1C0F321278520040
:103EA0001A703B1C0E333A1C0E32127801321A7013
:103EB000BB689B793A1C0E3212789A42D4D3BD4625
:103EC00004B080BDD0F0FF1F0040024080B582B03A
:103ED00000AF0B4B1B687B600A4B0A4A5279D2B287
:103EE00001218A43D2B25A717B681A6A7B681B69C6
:103EF0001B78101C191C00F0BFFEBD4602B080BD2F
:103F0000D4F0FF1F0040024080B584B000AF78605D
:103F10000C4BFB60FB687A681A600B4B0A4A5269CB
:103F2000802149010A435A61074B074A1168074A31
:103F30000A401A60064BFA68DA61FB68181CBD4635
:103F400004B080BDD8F0FF1F40F00F40FFEFFFFF2F
:103F500068F0FF1F80B584B000AF78600D4B5A69E0
:103F600080235B01134006D10A4B1A6980235B0151
:103F70001340FB6005E0074B1A6880235B01134088
:103F8000FB60FB685A1E9341DBB2181CBD4604B0AF
:103F900080BDC04640F00F4080B582B000AF786071
:103FA000034B802252019A60BD4602B080BDC046DC
:103FB00040F00F4080B582B000AF7860034B8022A4
:103FC00052015A60BD4602B080BDC04640F00F406D
:103FD00080B584B000AF78600C4BFB60FB687A68FA
:103FE0001A600B4B0A4A5269802109010A435A613F
:103FF000074B074A1168074A0A401A60064BFA68DD
:104000001A61FB68181CBD4604B080BDDCF0FF1FC0
:1040100000F00F40FFF7FFFF68F0FF1F80B584B08E
:1040200000AF78600D4B5A6980231B01134006D105
:104030000A4B1A6980231B011340FB6005E0074B04
:104040001A6880231B011340FB60FB685A1E9341D2
:10405000DBB2181CBD4604B080BDC04600F00F4066
:1040600080B582B000AF7860034B802212019A6065
:10407000BD4602B080BDC04600F00F4080B582B0A2
:1040800000AF7860034B802212015A60BD4602B037
:1040900080BDC04600F00F4080B584B000AF7860AE
:1040A0000C4BFB60FB687A681A600B4B0A4A52693A
:1040B0008021C9000A435A61074B074A1168074A21
:1040C0000A401A60064BFA689A61FB68181CBD46E4
:1040D00004B080BDE0F0FF1F00F00F40FFFBFFFFCA
:1040E00068F0FF1F80B584B000AF78600D4B5A694F
:1040F0008023DB00134006D10A4B1A698023DB00C2
:104100001340FB6005E0074B1A688023DB00134077
:10411000FB60FB685A1E9341DBB2181CBD4604B01D
:1041200080BDC04600F00F4080B582B000AF78601F
:10413000034B8022D2009A60BD4602B080BDC046CB
:1041400000F00F4080B582B000AF7860034B802252
:10415000D2005A60BD4602B080BDC04600F00F409C
:1041600080B584B000AF78600D4BFB60FB687A6867
:104170001A600C4B0B4A5269802109050A435A61A7
:10418000084B084A1268802109050A431A60064B49
:10419000FA685A61FB68181CBD4604B080BDC04671
:1041A000E4F0FF1F40F00F4068F0FF1F80B584B0BF
:1041B00000AF78600D4B5A6980231B05134006D170
:1041C0000A4B1A6980231B051340FB6005E0074B6F
:1041D0001A6880231B051340FB60FB685A1E93413D
:1041E000DBB2181CBD4604B080BDC04640F00F4095
:1041F00080B582B000AF7860034B802212059A60D0
:10420000BD4602B080BDC04640F00F4080B582B0D0
:1042100000AF7860034B802212055A60BD4602B0A1
:1042200080BDC04640F00F4080B584B000AF7860DC
:104230000F4BFB60FB687A681A600E4B0D4A52699F
:1042400020218A435A610B4B0A4A926920218A43F2
:104250009A61084B074A126820210A431A60064BEC
:10426000FA681A62FB68181CBD4604B080BDC046DF
:10427000E8F0FF1F80F00F4068F0FF1F80B584B0AA
:1042800000AF78600B4B5A692023134005D1094BCE
:104290001A6920231340FB6004E0064B1A682023B0
:1042A0001340FB60FB685A1E9341DBB2181CBD46ED
:1042B00004B080BD80F00F4080B584B000AF78605E
:1042C0000F4BFB60FB687A681A600E4B0D4A52690F
:1042D00040218A435A610B4B0A4A926940218A4322
:1042E0009A61084B074A126840210A431A60064B3C
:1042F000FA68DA60FB68181CBD4604B080BDC04691
:10430000ECF0FF1F80F00F4068F0FF1F80B584B015
:1043100000AF78600B4B5A694023134005D1094B1D
:104320001A6940231340FB6004E0064B1A684023DF
:104330001340FB60FB685A1E9341DBB2181CBD465C
:1043400004B080BD80F00F4080B584B000AF7860CD
:104350000F4BFB60FB687A681A600E4B0D4A51697F
:104360000D4A0A405A610B4B0A4A91690A4A0A40AF
:104370009A61084B074A1268802189050A431A602E
:10438000064BFA689A60FB68181CBD4604B080BDF5
:10439000F0F0FF1F00F00F40FFFFFFDF68F0FF1F8E
:1043A00080B584B000AF78600D4B5A6980239B05BF
:1043B000134006D10A4B1A6980239B051340FB600A
:1043C00005E0074B1A6880239B051340FB60FB68E0
:1043D0005A1E9341DBB2181CBD4604B080BDC046D6
:1043E00000F00F4080B584B000AF78600F4BFB60E9
:1043F000FB687A681A600E4B0D4A51690D4A0A40F3
:104400005A610B4B0A4A91690A4A0A409A61084B61
:10441000074A12688021C9050A431A60064BFA68E8
:104420005A60FB68181CBD4604B080BDF4F0FF1F45
:1044300000F00F40FFFFFFBF68F0FF1F80B584B0A2
:1044400000AF78600D4B5A698023DB05134006D11D
:104450000A4B1A698023DB051340FB6005E0074B1C
:104460001A688023DB051340FB60FB685A1E9341EA
:10447000DBB2181CBD4604B080BDC04600F00F4042
:1044800080B584B000AF78600C4BFB60FB687A6845
:104490001A600B4B0A4A5269802109020A435A6189
:1044A000074B074A1168074A0A401A60064BFA6828
:1044B000DA62FB68181CBD4604B080BDF8F0FF1F2F
:1044C00040F00F40FF7FFFFF68F0FF1F80B584B012
:1044D00000AF78600D4B5A6980231B02134006D150
:1044E0000A4B1A6980231B021340FB6005E0074B4F
:1044F0001A6880231B021340FB60FB685A1E93411D
:10450000DBB2181CBD4604B080BDC04640F00F4071
:1045100080B582B000AF7860034B802212029A60AF
:10452000BD4602B080BDC04640F00F4080B582B0AD
:1045300000AF7860034B802212025A60BD4602B081
:1045400080BDC04640F00F4080B584B000AF7860B9
:104550000C4BFB60FB687A681A600B4B0A4A526985
:104560008021C9010A435A61074B074A1168074A6B
:104570000A401A60064BFA689A62FB68181CBD462E
:1045800004B080BDFCF0FF1F40F00F40FFBFFFFFF5
:1045900068F0FF1F80B584B000AF78600D4B5A699A
:1045A0008023DB01134006D10A4B1A698023DB010B
:1045B0001340FB6005E0074B1A688023DB011340C2
:1045C000FB60FB685A1E9341DBB2181CBD4604B069
:1045D00080BDC04640F00F4080B582B000AF78602B
:1045E000034B8022D2019A60BD4602B080BDC04616
:1045F00040F00F4080B582B000AF7860034B80225E
:10460000D2015A60BD4602B080BDC04640F00F40A6
:1046100080B584B000AF78600C4BFB60FB687A68B3
:104620001A600B4B0A4A5269802189010A435A6178
:10463000074B074A1168074A0A401A60064BFA6896
:104640005A62FB68181CBD4604B080BD00F1FF1F14
:1046500040F00F40FFDFFFFF68F0FF1F80B584B020
:1046600000AF78600D4B5A6980239B01134006D13F
:104670000A4B1A6980239B011340FB6005E0074B3E
:104680001A6880239B011340FB60FB685A1E93410C
:10469000DBB2181CBD4604B080BDC04640F00F40E0
:1046A00080B582B000AF7860034B802292019A609F
:1046B000BD4602B080BDC04640F00F4080B582B01C
:1046C00000AF7860034B802292015A60BD4602B071
:1046D00080BDC04640F00F4080B584B000AF786028
:1046E0000C4BFB60FB687A681A600B4B0A4A5269F4
:1046F00002210A435A61084B074A126802210A4301
:104700001A60064BFA681A60FB68181CBD4604B0B4
:1047100080BDC04604F1FF1F00F00F4068F0FF1F8E
:1047200080B582B000AF7860024B0222DA60BD46ED
:1047300002B080BD00F00F4080B500AF054A064BC7
:10474000D31A054A101C00211A1C01F0E8FBBD46D3
:1047500080BDC046DCF1FF1F24F0FF1F01F0DAFE30
:1047600001F052F9FFF7E8FF01F0ACFE01F048FE5E
:1047700001F0DEFE044B0020191C00F06DF9031C53
:10478000181C01F0A7FBC04608F1FF1F80B582B0DE
:1047900000AF7860FEE7C04680B500AF0020FEF7AE
:1047A000A1FF021C0E4B1A600E4B1422DA700E4B46
:1047B00000221A600C4B00221A71082001F000FB45
:1047C000031C1A1C084B9A60074B00221A73064BF5
:1047D0000022DA81044B00221A74BD4680BDC04617
:1047E0000CF1FF1F0040024010F1FF1F90B58BB08D
:1047F00000AFF8607A603B1C0B330A1C1A707B68B0
:10480000802212061A433B1C10331A603B1C1033E3
:1048100000221A713B1C1033FA689A603B1C10335B
:104820003A1C0B3212781A73104B1B883A1C103248
:10483000191CD18101339AB20C4B1A803B1C1033E6
:1048400000221A740A4B1B68002B0CD0084B1A6804
:104850003C1C26343B1C1033101C01211A1CFFF792
:1048600025F8031C2380BD460BB090BD24F1FF1F2B
:104870000CF1FF1F80B584B000AF786039603B1C3D
:104880000F3300221A701D4B1B7B002B01D100231C
:104890002FE01A4B1B79002B01D0002329E0174B86
:1048A0001A683B681A603B1C0F3300221A7013E031
:1048B0003B1C0F331B787A68D218104B99683B1C4D
:1048C0000F331B78CB181B7813703B1C0F333A1C2B
:1048D0000F32127801321A70084B1B7B3A1C0F32D0
:1048E00012789A42E4D3054B00221A733B1C0F3313
:1048F0001B78181CBD4604B080BDC04610F1FF1FD8
:1049000090B589B000AF3B1C1F3300221A703B1CCE
:104910003A1C14329A60264B1B68002B45D0244B5E
:104920001A683C1C1C343B1C101C00211A1CFFF78D
:1049300067F9031C23803B1C1C331B88002B34D1DC
:104940003B1C1A681B4B1A603B1C1A79194B1A71D5
:104950003B1C1A7B174B1A733B1CDA89154BDA8107
:104960003B1C1A7C134B1A743B1C1F3300221A7019
:1049700014E0104B9A683B1C1F331B78D2183B1C69
:1049800099683B1C1F331B78CB181B7813703B1C9A
:104990001F333A1C1F32127801321A703B1C1B7BEA
:1049A0003A1C1F3212789A42E3D3BD4609B090BD3B
:1049B0000CF1FF1F10F1FF1F80B500AF0F4B0F4A26
:1049C0005269802189050A435A610D4B00221A6001
:1049D0000B4B29229A600A4B00225A60084B084A66
:1049E0009269802149000A439A61054B044A926901
:1049F000802189000A439A61BD4680BD0080044041
:104A000000B0034080B584B000AF021CFB1D1A70DB
:104A10003A1C0C320E4B111C1A1C0223081C111CD0
:104A20001A1C01F073FA0B4BFA1D1278391C0C3169
:104A30008A5C1A60C046074B1A6880231340FAD07C
:104A4000044B1B699BB2181CBD4604B080BDC04618
:104A50003465000000B0034080B582B000AF012390
:104A60007B6001233B6000F0F7FFFFF795FEFFF747
:104A7000A3FF00F0B5FC754B9A6B754B101C191C0D
:104A8000FEF79CFD734B64221A600DE06F4BDB68F0
:104A9000181CFFF73BFC031C7B606C4B1B6A181C4B
:104AA000FFF7ECFB031C3B606A4B1B68002BEDD14E
:104AB0007B68012B3ED13B68012B3BD1664B1A7BB7
:104AC00007218A431A7300F0ABFA00F099FC031C2B
:104AD0001A1C624B1A70614B1B78002B05D05F4B80
:104AE0001B78181C00F080FD09E05B4B1A7B20212D
:104AF0000A431A73584B1A7B08218A431A73534B83
:104B0000DB68181CFFF702FC031C002B07D04F4B7F
:104B10001B6A181CFFF7B2FB031C002B04D14E4B81
:104B20001A7B20218A431A7300F0D2FE00F0AAFDFE
:104B3000C9E7C04600F0CCFE00F072FA00F060FC5D
:104B4000031C1A1C454B1A70444B1B78002B05D0D4
:104B5000424B1B78181C00F047FD09E03E4B1A7BC6
:104B600020210A431A733C4B1A7B08218A431A738B
:104B7000364BDB68181CFFF7C9FB031C002B23D145
:104B8000324B1B6A181CFFF779FB031C012B1BD14E
:104B90002E4B9B68181CFFF703FC031C012B09D14B
:104BA0002A4B9B69181CFFF7BFFA284BDB69181CBE
:104BB000FFF7F2F900F03CF9274B1A7B07218A43F3
:104BC00001210A431A733FE0204B1B6A181CFFF7B0
:104BD00055FB031C002B1CD11C4BDB68181CFFF77A
:104BE00095FB031C012B14D11B4B1B68181C1C4983
:104BF000FBF722FD031C002B01D000F0EBF800F0C6
:104C0000BBF8154B1A7B07218A4302210A431A730A
:104C10001AE00E4B1B6A181CFFF730FB031C012B1C
:104C200087D10A4BDB68181CFFF770FB031C012BB4
:104C300000D07EE700F0CEF800F058F9064B1A7B62
:104C400007218A431A7374E773E7C04668F0FF1FB1
:104C5000FFFF000000F0FF1FC4F1FF1F26F1FF1F40
:104C60000000704280B582B000AF78600A1CFB1C67
:104C70001A70BD4602B080BD80B582B000AF7860CA
:104C80000A1CFB1C1A70074B1B79DBB21A1C012390
:104C9000134004D0FFF734FE024B00221A71BD46C8
:104CA00002B080BD0040024080B500AFBD4680BD6F
:104CB00080B582B000AF7860274B1B68002B04D012
:104CC000254B1B685A1E244B1A60244B1B68002B73
:104CD00004D0224B1B685A1E204B1A60204B1B68C5
:104CE000002B04D01E4B1B685A1E1D4B1A601D4B17
:104CF0001B68002B04D01B4B1B685A1E194B1A60F3
:104D0000194B1B68002B04D0174B1B685A1E164BFF
:104D10001A60164B1B68002B04D0144B1B685A1EDC
:104D2000124B1A60124B9B7AF92B05D8104B9B7AC9
:104D30000133DAB20E4B9A72084B1B68002B07D175
:104D40000C4B1B68181CFFF7EBFC044B64221A6029
:104D5000BD4602B080BDC04600F0FF1F40F1FF1FFE
:104D60003CF1FF1F44F1FF1F48F1FF1F4CF1FF1FF3
:104D7000C4F1FF1F68F0FF1F80B500AF144B9B6AA2
:104D8000181CFFF707FC031C002B07D0104BDB6A35
:104D9000181CFFF79BFB031C002B09D10C4B9B6AD3
:104DA000181CFFF727FC0A4BDB6A181CFFF7BEFB39
:104DB000074B1B69181CFFF731F9031C002B04D1AA
:104DC000034B1B69181CFFF759F9BD4680BDC0464F
:104DD00068F0FF1F80B500AF144B1B69181CFFF76C
:104DE0001DF9031C012B04D1104B1B69181CFFF784
:104DF00037F90E4B9B6A181CFFF7CCFB031C012BE9
:104E000007D00A4BDB6A181CFFF760FB031C012B61
:104E100009D1064B9B6A181CFFF7DEFB034BDB6ACC
:104E2000181CFFF775FBBD4680BDC04668F0FF1F2C
:104E300080B500AF2B4B9B6A181CFFF7ABFB031C24
:104E4000002B07D0274BDB6A181CFFF73FFB031C26
:104E5000002B09D1234B9B6A181CFFF7CBFB214B7E
:104E6000DB6A181CFFF762FB1E4B5B6A181CFFF71E
:104E7000F5FB031C002B04D11A4B5B6A181CFFF7CF
:104E80001DFC184B9B69181CFFF72CF9031C002B09
:104E900004D1144B9B69181CFFF754F9114BDB69C3
:104EA000181CFFF757F8031C002B04D10D4BDB69CE
:104EB000181CFFF77FF80B4B5B69181CFFF776F99E
:104EC000031C012B04D1074B5B69181CFFF790F9F9
:104ED000044B9A6B044B101C191CFEF76FFBBD466C
:104EE00080BDC04668F0FF1FD245000080B500AF0E
:104EF0002B4B5B69181CFFF759F9031C002B04D1DD
:104F0000274B5B69181CFFF781F9254BDB69181CDF
:104F1000FFF720F8031C012B04D1214BDB69181C7F
:104F2000FFF73AF81E4B9B69181CFFF7DBF8031CD0
:104F3000012B04D11A4B9B69181CFFF7F5F8184B8D
:104F40009A6B184B101C191CFEF738FB144B9B6A0C
:104F5000181CFFF71FFB031C012B07D0104BDB6A4B
:104F6000181CFFF7B3FA031C012B09D10C4B9B6AE9
:104F7000181CFFF731FB0A4BDB6A181CFFF7C8FA55
:104F8000074B5B6A181CFFF769FB031C012B04D15C
:104F9000034B5B6A181CFFF783FBBD4680BDC04610
:104FA00068F0FF1FFFFF000080B584B000AF78609D
:104FB0003B1C0F3300221A700023BB603B1C0F33D5
:104FC00000221A7013E03B1C0F331B789B007A6899
:104FD000D3181B68B868191CFBF742FB031CBB60A5
:104FE0003B1C0F333A1C0F32127801321A703B1CF3
:104FF0000F331B78092BE6D9084B1B78181CFCF7DC
:1050000043F8031CB868191CFBF7FCFC031CBB60CD
:10501000BB68181CBD4604B080BDC046A0F1FF1F90
:1050200080B582B000AF00237B6000233B60434B20
:105030001B68002B00D07CE0404B14221A6000F06B
:105040005BF9031C7B6078683D49FBF7E1FA031CC0
:10505000002B11D078683B49FBF7EEFA031C002BBC
:105060000AD0394B1B781A1C384B92007968D15002
:10507000374B00225A7211E0334B1B781A1C344B09
:105080001968324B9200D150314B5B7A312B05D8E5
:105090002F4B5B7A0133DAB22D4B5A7200F08CF948
:1050A000031C3B6038682B49FBF7B2FA031C002B4A
:1050B00011D038682849FBF7C9FA031C002B0AD025
:1050C000214B1B781A1C254B92003968D150204B7C
:1050D00000221A7211E01C4B1B781A1C1C4B5968D9
:1050E0001E4B9200D1501A4B1B7A312B05D8184B0E
:1050F0001B7A0133DAB2164B1A72134B1B78013349
:10510000DAB2114B1A70104B1B78092B12D90F4BC6
:10511000181CFFF749FF021C0D4B1A600F4B181C9F
:10512000FFF742FF021C0A4B5A60074B00221A701D
:1051300000E0C046BD4602B080BDC04644F1FF1F3E
:105140000000C842000048C2A0F1FF1F50F1FF1F3D
:10515000C4F1FF1F00007A430000204278F1FF1FD6
:10516000F0B58BB000AFF861B9613B613B1C173300
:105170001A7000237B6200233B623869FDF7A6FDAD
:10518000031C0C1C181C211C524B514AFCF776FFC7
:10519000031C0C1C1D1C261C3B6980225201D31AC7
:1051A000FA695343181CFDF791FD031C0C1C281CC5
:1051B000311C1A1C231CFCF767FB031C0C1C181C5D
:1051C000211CFDF709FE031C3B62B869FDF77EFD5B
:1051D000051C0E1CB869FDF779FDB860F9603B1C31
:1051E00017331B78181CFDF737FD031C0C1C181C0B
:1051F000211C394A394BFBF79BFF031C0C1CB86878
:10520000F9681A1C231CFCF73FFB031C0C1C3B60B9
:105210007C60386AFDF78CFD031C0C1C181C211CDB
:1052200000F0C2FE031C0C1C181C211C2C4A2D4B28
:10523000FCF72AFB031C0C1C386879681A1C231C19
:10524000FBF776FF031C0C1C281C311C1A1C231CAA
:10525000FCF71AFB031C0C1C181C211C1E4A1F4BBC
:10526000FDF77EF9031C0C1C181C211CFDF7B4FD76
:10527000031C7B62786A1E49FBF7B6FD031C181CF1
:105280001C49FBF7EDF9031C181CFBF7DDFE031CA2
:10529000181C0A21FBF70AF9031C181CFDF7DCFC9B
:1052A000031C0C1C181C211C0F4A104BFCF7E6FEBB
:1052B000031C0C1C181C211CFDF78EFD031C7B62BB
:1052C0007B6A181CBD460BB0F0BDC046C046C04648
:1052D00000000000005CB2406666666666127140BF
:1052E00069FFFFFFFFFFEF3F9A9999999999B93F9D
:1052F0000000C8420000A04080B582B000AF00238B
:105300007B600120FFF77EFB031C7B600649074A98
:105310007B68081C111C1922FFF722FF031C181CB4
:10532000BD4602B080BDC0461A2700006B0D0000CC
:10533000F0B585B000AF78600023FB607868FDF7BA
:10534000C5FC031C0C1C181C211C184B164AFCF72E
:1053500095FE031C0C1C1D1C261C7B681A1CDB0004
:10536000D31AE022D2019B18181CFDF7AFFC031CD6
:105370000C1C281C311C1A1C231CFCF785FA031C6E
:105380000C1C181C211C0A4A0A4BFBF7D1FE031CFB
:105390000C1C181C211CFDF71FFD031CFB60FB6887
:1053A000181CBD4605B0F0BD0000000000C08240E2
:1053B000000000000000444080B582B000AF002330
:1053C0007B600020FFF71EFB031C7B607B68181CC2
:1053D000FFF7AEFF031C181CBD4602B080BDC046DF
:1053E00080B500AFFFF788FF021C044B1A60FFF77F
:1053F000E3FF021C014B5A60BD4680BDC4F1FF1F94
:1054000080B582B000AFFB1D00221A706F4B1B6885
:10541000181C6F49FBF71AF9031C002B03D16B4BC7
:105420005B7A1D2B0BD9694BDA7A10210A43DA72A9
:10543000FB1DFA1D127801210A431A7024E0634B08
:105440001B68181C6349FBF7EDF8031C002B0BD0FD
:105450005E4BDA7A20210A43DA72FB1DFA1D1278BC
:1054600001210A431A700FE0584BDA7A10218A435F
:10547000DA72564BDA7A20218A43DA72FB1DFA1D62
:10548000127801218A431A70504B5B68181C5249EC
:10549000FBF7BEF8031C002B0BD04C4BDA7A04212F
:1054A0000A43DA72FB1DFA1D127802210A431A70B0
:1054B0000AE0464BDA7A04218A43DA72FB1DFA1DB0
:1054C000127802218A431A70444B9B68181CFEF71D
:1054D00067FF031C012B0BD13C4BDA7A01210A43F5
:1054E000DA72FB1DFA1D127808210A431A700AE0CD
:1054F000364BDA7A01218A43DA72FB1DFA1D1278E3
:1055000008218A431A70314BDA7A08218A43DA7209
:10551000FB1DFA1D127810218A431A702F4B9B6ACB
:10552000181CFFF737F8031C012B07D02B4BDB6A45
:10553000181CFEF7CBFF031C012B3BD1284B1B781B
:10554000012B06D1274BFA22D2001A60244B0222EB
:105550001A70244B1B68002B31D1224BC8221A60D1
:105560001E4B5B68181CFEF769FF031C012B10D152
:10557000164B1A7B10218A431A73FB1DFA1D1278F1
:1055800004210A431A70114BDA7A02210A43DA72B3
:1055900015E00E4B1A7B10210A431A73FB1DFA1DEE
:1055A000127804218A431A70084BDA7A02218A435E
:1055B000DA7204E0054B1A7B10218A431A73FB1D33
:1055C0001B78181CBD4602B080BDC046C4F1FF1F49
:1055D000000070420000C8C100002A4368F0FF1FAD
:1055E00004F0FF1F48F1FF1F80B582B000AF021C1E
:1055F000FB1D1A70FB1D1A780123134013D1FB1DEC
:105600001A78022313400ED1FB1D1A78042313408D
:1056100009D1FB1D1A780823134004D1FB1D1A7809
:105620001023134005D0164B1A7B08210A431A7326
:1056300004E0134B1A7B08218A431A73FB1D1A7866
:10564000022313400ED1FB1D1A780423134009D105
:10565000FB1D1A780823134004D1FB1D1A78102370
:10566000134005D0064B1A7B20218A431A7304E0AD
:10567000034B1A7B20210A431A73BD4602B080BD3A
:10568000C4F1FF1F80B500AF8A4A8B4B101C191C58
:10569000FFF7F0F8031C082B00D007E1874B00222E
:1056A0009A72854B1A68864B9A4200D073E0814B00
:1056B0001B78552B00D06CE07E4B5B78002B04D11F
:1056C000804B9B69181CFEF72FFD7A4B5B78012BF2
:1056D00004D17C4B9B69181CFEF734FD754B9B78FD
:1056E000002B04D1774B1B69181CFEF7B9FC714BDA
:1056F0009B78012B04D1734B1B69181CFEF7BEFC71
:105700006C4BDB78002B04D16E4BDB69181CFEF769
:1057100043FC684BDB78012B04D16A4BDB69181C16
:10572000FEF748FC634B1B79002B04D1654B5B6A89
:10573000181CFEF7B5FF5F4B1B79012B04D1614BA1
:105740005B6A181CFEF7BAFF5A4B5B79002B04D139
:105750005C4B9B6A181CFEF73FFF564B5B79012B95
:1057600004D1584B9B6A181CFEF744FF514B9B79A0
:10577000002B04D1534BDB6A181CFEF7C9FE4D4BBE
:105780009B79012B06D14F4BDB6A181CFEF7CEFE2E
:1057900000E000E0C046484B1B68DB00DA084A4BDB
:1057A0009A4200D083E0434B1B781A1C032313401A
:1057B000012B28D1434B1B69181CFEF72FFC031C3F
:1057C000012B04D13F4B1B69181CFEF749FC3D4BD4
:1057D0009B68181CFEF7E4FD031C012B09D1394B13
:1057E0009B69181CFEF7A0FC364BDB69181CFEF702
:1057F000D3FBFFF71DFB314B1A7B07218A430121A5
:105800000A431A7353E02B4B1B781A1C03231340D3
:10581000022B3BD12B4B9B69181CFEF763FC031C2E
:10582000012B0FD0274BDB69181CFEF793FB031CE1
:10583000012B07D0234B5B6A181CFEF70FFF031CDC
:10584000012B0ED11F4B9B69181CFEF76DFC1D4BE5
:10585000DB69181CFEF7A0FB1A4B5B6A181CFEF7ED
:105860001FFF164B1B68181C1849FAF7E5FE031CAE
:10587000002B01D0FFF7AEFAFFF77EFA0F4B1A7B31
:1058800007218A4302210A431A7310E0094B1B784F
:105890001A1C032313400AD1FFF79CFAFFF726FBDB
:1058A000064B1A7B07218A431A7300E0C046BD46A7
:1058B00080BDC04628F1FF1F38F1FF1FC4F1FF1F54
:1058C0004B01000068F0FF1F141101180000704226
:1058D00080B500AF424B1B68002B7DD1404B0222AC
:1058E0001A60404B1A7B404B1A703E4B1B68181CC9
:1058F0003E49FBF779FA031C181CFBF7A5FB031CB8
:10590000DA179B1853409BB2181C0A21FAF780FD46
:10591000031C9BB2DAB2344B5A70324B1B68181C12
:105920003249FBF761FA031C181CFBF78DFB031CC3
:10593000DA179B1853409BB2181C0A21FAF7ACFDEA
:105940000B1C9BB2DAB2284B9A70264B5B68181C72
:105950002649FBF749FA031C181CFBF775FB031CCF
:10596000DA179B1853409BB2181C0A21FAF750FD16
:10597000031C9BB2DAB21C4BDA701A4B5B68181C22
:105980001A49FBF731FA031C181CFBF75DFB031CDB
:10599000DA179B1853409BB2181C0A21FAF77CFDBA
:1059A0000B1C9BB2DAB2104B1A710F4B00225A71CA
:1059B0000F4B1A780C4B9A710A4BDA7A0A4BDA7150
:1059C0000C4B0D4A1A600B4B1B68074A101C082130
:1059D0001A1CFEF70BFF00E0C046BD4680BDC04666
:1059E0003CF1FF1FC4F1FF1F30F1FF1F00002041F9
:1059F00026F1FF1F38F1FF1F1114021880B500AF08
:105A0000FFBEBD4680BDC04680B500AF0C4A0D4903
:105A10000D4BD1500D4B03229A800C4B01225A7032
:105A20000A4B20221A700A4B802252045A6200202C
:105A300000F06AF8064B074A92685A62BD4680BD7C
:105A400000E000E000000000080D0000002005401C
:105A5000008004409C66000080B500AF0E4B0E4AEB
:105A60005269802189010A435A610B4B0A4A5268E4
:105A700002210A435A60084B074A526804210A432C
:105A80005A60054B044A526808210A435A60FDF7E0
:105A9000FBFD62B6BD4680BD0080044080B500AF0E
:105AA000184B1B78DBB21A1CC0231340402B0ED0BE
:105AB000802B17D0002B20D1124B1B78DBB21A1C85
:105AC0000423134001D1032318E0002316E00D4BFB
:105AD0005B78DBB21A1C1023134001D101230DE0C7
:105AE00002230BE0074B5B78DBB21A1C1023134038
:105AF00001D1042302E0052300E00023181CBD4669
:105B000080BDC0460040064090B587B000AF021C83
:105B1000FB1D1A70FB1D19783B1C1433974A0901B1
:105B20008A5A1A803C1C1634FFF7B8FF031C2380E6
:105B30003B1C16331A880F231A403B1C1433198858
:105B40000F230C1C1C40391C16318D48131C5B00A4
:105B50009B185B001B195B001B5A0B803B1C163308
:105B60001A883B1C143319880F230B409A4211D119
:105B7000FB1D1B783A1C0C32804819010223411886
:105B8000CB18111C1A1C0523081C111C1A1C00F030
:105B9000BDF911E03B1C16331A880F231A40794BCC
:105BA0009200D3583A1C0C32111C1A1C0523081CF5
:105BB000111C1A1C00F0AAF93B1C16331A880F237B
:105BC0001340052B00D998E09A006F4BD3181B683F
:105BD0009F466E4B3A1C0C3212781A70C0466B4BC3
:105BE0001B79DBB21A1C10231340F8D0674B3A1C08
:105BF0000C3252785A70654B3A1C0C329278012163
:105C00008A43D1B2614AD278D0B201220240D2B2E4
:105C10000A43D2B2DA705E4B3A1C0C3212791A7017
:105C20006EE05A4B3A1C0C3212781A70C046574B31
:105C30001B79DBB21A1C10231340F8D0534B3A1CCB
:105C40000C3252785A70524B3A1C0C3212791A703C
:105C500056E04E4B3A1C0C3252785A704C4B3A1C60
:105C60000C3212791A70494B3A1C0C3212781A70A5
:105C70003B1C14331A888023134007D0C046444B82
:105C80001B78DBB21A1C01231340F8D0C0463F4BEF
:105C90001B79DBB21A1C10231340F8D13B4B3A1C82
:105CA0000C32927801218A43D1B2384AD278D0B2EC
:105CB00001220240D2B20A43D2B2DA7020E0334B62
:105CC0003A1C0C3212781A70304B3A1C0C32527853
:105CD0005A702F4B3A1C0C3212791A703B1C143339
:105CE0001A88802313400AD0C046294B1B78DBB2A8
:105CF0001A1C01231340F8D001E0C04600E0C04662
:105D00003B1C16331B88052B2AD80122111C9940F5
:105D10000B1C09221A4006D130221A4016D1062245
:105D2000134009D11CE0C046184B1B79DBB21A1C8A
:105D30000C231340F8D113E0C046144B1B79DBB29F
:105D40001A1C0C231340042BF7D109E0C0460F4B5B
:105D50001B79DBB21A1C0C231340082BF7D1C04669
:105D60003B1C16331A883B1C143319880F230B4035
:105D70009A4200D0DCE6BD4607B090BD9C660000AC
:105D80005466000008F0FF1FDC660000004006407B
:105D900000500640084A00B51368002B01D107499E
:105DA000116013681818EC46604501D8106001E0D6
:105DB00001225342181C00BDA8F1FF1FF4F1FF1F80
:105DC000F8B5424BC51D07201C6885430BD0231C2A
:105DD00005E018780127061C384206D15B68002BC5
:105DE000F7D1002D2DDA00206EE019684A0895429F
:105DF000F4D8501B3F2803D8351CBD431D701DE04F
:105E00002C1C5E6808341A1956605A605768002FB7
:105E100002D12F49141D0C60167801273E431670DD
